:10000000C0C10000D9C10000D7C10000D5C10000A7
:10001000D3C10000D1C10000CFC10000CDC100009C
:10002000CBC10000C9C10000C7C10000E0C400008E
:10003000C3C10000C1C10000BFC10000BDC10000BC
:10004000BBC10000B9C10000B7C10000B5C10000CC
:10005000B3C10000B1C10000AFC10000ADC10000DC
:10006000ABC10000A9C10000A7C10000A5C10000EC
:10007000A3C10000C205E405C806E405C8062606BB
:100080004806C8069A06AC062E03540072006100AA
:100090006B0074006F00720020004B006F006E0058
:1000A000740072006F006C002000460031002000D8
:1000B00044004600550000002E0354007200610009
:1000C0006B0074006F00720020004B006F006E0028
:1000D000740072006F006C002000460031002000A8
:1000E0004800490044000000120330003000300096
:1000F0003000300030003000300000002603540093
:10010000720061006B0074006F00720020004B00F1
:100110006F006E00740072006F006C0020004600DB
:100120003100000026034E00610074006900760073
:100130006500200049006E007300740072007500B5
:100140006D0065006E007400730000000403090474
:100150000902390002010480F009040000020300D2
:10016000000009211001000122E701070581032099
:100170000004070501032000040904010000FE013A
:100180000105072107FA00400012010002000000EB
:1001900020CC1720110900010203010601FF09000C
:1001A000A1010901A102850109020902090209024E
:1001B00009020902090209020902090209020902E7
:1001C00009020902090209020902090209020902D7
:1001D00009020902090209020902090209020902C7
:1001E000090209020902090215002501750195207D
:1001F00081020903150026FF007508950181020997
:1002000004090409040904150026FF0F751095045C
:1002100081020905090509050905150026FF0F7565
:100220001095048102C00980A1028580098109819D
:10023000098109810981098109810981098109816E
:10024000098109810981098109810981098109815E
:10025000098109810981098109810981098109814E
:10026000098109810981098109810981098109813E
:10027000098109810981098109810981098109812E
:10028000098109810981098109810981098109811E
:10029000098109810981098109810981098109810E
:1002A00009810981098109810981098109810981FE
:1002B00009810981098109810981098109810981EE
:1002C0000981098109810981098109810981150053
:1002D000257F750895509102C00901A10285F0099A
:1002E0000409040904090409050905090509051596
:1002F0000046FF0075089508B102C009D0A102852B
:10030000D009D1150026FF007508953FB102C0093C
:1003100001A10285F1098109810981098109810908
:10032000810981098109810981098109810981097D
:10033000810981098109810981098109810981096D
:10034000810981098109810981098109810981095D
:10035000810981098109810981098109810981094D
:10036000810981098109810981098109810981093D
:100370008109810981150026FF0075089530B102B9
:10038000C0C011241FBECFEFD2E0DEBFCDBF11E051
:10039000A0E0B1E0ECEAF0E102C005900D92A031DE
:1003A000B107D9F721E0A0E1B1E001C01D92A93465
:1003B000B207E1F717D078C623CE84B7877F84BF12
:1003C00088E10FB6F89480936000109260000FBE31
:1003D00090E080E80FB6F8948093610090936100FC
:1003E0000FBEF6C2EADF789489E190E09093CD00E9
:1003F0008093CC0086E08093CA001092C80088E108
:100400008093C900539A5A9AC0E0D0E011E0C631F7
:10041000D10564F48091C80087FF20C08091CE0090
:10042000FE01E05FFE4F8083219618C0809140015D
:10043000843091F41093E9008091E80080FF0CC0B3
:1004400040E050E066E170E080E191E083D080918F
:10045000E8008E778093E800C0E0D0E0B2D4D7CF38
:100460000895089580E091E0F6D5E2EEF0E0808115
:1004700084608083089580E091E0BFC480910E0184
:1004800090910F01009729F0019790930F018093AD
:100490000E0108950F931F9386E190E0F801918378
:1004A000808380E01F910F9108950895292F3327AD
:1004B00023303105C9F06CF42130310509F43DC019
:1004C0002230310509F03EC089E390E020E531E0BB
:1004D0003DC02132310561F12232310599F587EEB7
:1004E00091E02BE931E032C0992782309105A1F0EB
:1004F0003CF4009771F0019729F5E4E2F1E014C0B3
:100500008430910579F05CF00597E1F4E8E8F0E0DB
:100510000BC0ECE4F1E008C0ECEFF0E005C0E8EE61
:10052000F0E002C0E8EBF0E0849190E09F010EC0A3
:1005300089E090E022E631E009C082E190E029E81C
:1005400031E004C080E090E020E030E0FA01318347
:1005500020830895CF92DF92EF92FF920F931F9323
:10056000CF93DF937C018B01EA01C9D1811131C0A6
:10057000209731F088819981081B190BE80EF91E2C
:10058000C12CD12C0115110519F18091E80085FDD0
:1005900014C08091E8008E778093E80012D42097F1
:1005A00041F0888199818C0D9D1D9983888385E018
:1005B00010C0A5D1882331F30CC0F70181917F01D0
:1005C0008093F10001501109FFEFCF1ADF0ADACF53
:1005D00080E0DF91CF911F910F91FF90EF90DF901E
:1005E000CF90089520914701309148012617370791
:1005F00048F06115710539F42091E8002E772093B9
:10060000E80001C0B90120E061157105D1F1309118
:100610004001332309F441C0353009F440C0309122
:10062000E80033FD38C03091E80032FF06C0809109
:10063000E80082FF29C080E008953091E80030FF93
:10064000E3CF2091F20030E0FC01281B390BCF01F1
:10065000820F931F6115710549F08032910530F4C6
:1006600081918093F10061507109F1CF21E0809771
:1006700009F020E08091E8008E778093E800CF01B8
:10068000C3CF2111C4CFD3CF80914001882329F05B
:10069000853069F604C081E0089582E0089583E022
:1006A00008956115710529F42091E8002B772093B6
:1006B000E8006115710521F120914001222349F1E3
:1006C000253049F12091E80023FD1FC02091E8006A
:1006D00022FFF2CFFC01CF012091F200222321F36F
:1006E0008091F1008193CF0161507109611571050D
:1006F00091F7DACF80914001882359F0853059F085
:100700008091E80080FFF6CF02C081E0089580E08C
:10071000089582E0089583E0089520914701309183
:1007200048012617370748F06115710539F4209103
:10073000E8002E772093E80001C0B90120E06115A0
:100740007105D9F130914001332309F442C03530AD
:1007500009F441C03091E80033FD39C03091E80020
:1007600032FF06C08091E80082FF2AC080E0089531
:100770003091E80030FFE3CF2091F20030E0FC013F
:10078000281B390BC9018E0F9F1F6115710551F090
:100790008032910538F484918093F1003196615054
:1007A0007109F0CF21E0809709F020E08091E80006
:1007B0008E778093E800CF01C2CF2111C3CFD2CF73
:1007C00080914001882329F0853061F604C081E0E2
:1007D000089582E0089583E00895982F953058F5A4
:1007E0009093E900981739F07091EC002091ED009A
:1007F0005091F00003C0242F762F50E021FF19C044
:100800003091EB003E7F3093EB003091ED003D7F67
:100810003093ED003091EB0031603093EB0070933A
:10082000EC002093ED005093F0002091EE0027FFA4
:1008300007C09F5FD3CF8F708093E90081E0089558
:1008400080E008950F931F93CF93DF93062FEC0161
:1008500010E0101769F19881992339F12C81E98111
:10086000FA816B81892F8F70853010F080E021C074
:10087000223010F056E001C052E028E030E040E0C5
:100880002E173F0720F44F5F220F331FF9CF4295F9
:10089000407F452B991F9927991F6295660F660F18
:1008A000607C692B9ADF882309F31F5F2596D1CFDF
:1008B00081E0DF91CF911F910F91089580914101C7
:1008C00087FD05C08091E80080FF0EC012C08091B6
:1008D000E80082FD05C0809140018111F8CF0895A4
:1008E0008091E8008B7708C0809140018111EACFA8
:1008F00008958091E8008E778093E80008958091B4
:10090000E4009091E50045E62091EC0020FF21C035
:100910002091E80020FD21C020914001222389F090
:10092000253089F02091EB0025FD0FC02091E400D7
:100930003091E5002817390739F3415041F0C901DA
:10094000E3CF82E0089583E0089581E0089584E094
:1009500008952091E80022FFDFCF80E0089541D084
:1009600043D08091D8008F778093D8008091D800B1
:1009700080688093D8008091D8008F7D8093D800C4
:1009800084E089BD86E089BD09B400FEFDCF1092E8
:10099000400110923C0110923E0110923D0142E252
:1009A00060E080E01ADF8091E1008E7F8093E100BB
:1009B0008091E20081608093E2008091E200886093
:1009C0008093E2008091E0008E7F8093E0000895A4
:1009D000E3E6F0E080818E7F808381E080933F01B9
:1009E000BECF1092E20008951092E10008951F9288
:1009F0000F920FB60F9211242F933F934F935F9353
:100A00006F937F938F939F93AF93BF93EF93FF93D6
:100A10008091E10082FF0AC08091E20082FF06C05F
:100A20008091E1008B7F8093E10028DD8091E100DF
:100A300080FF17C08091E20080FF13C08091E20028
:100A40008E7F8093E2008091E20080618093E200DB
:100A50008091D80080628093D80019BC1092400128
:100A600000DD8091E10084FF2FC08091E20084FFCF
:100A70002BC084E089BD86E089BD09B400FEFDCFAE
:100A80008091D8008F7D8093D8008091E1008F7E87
:100A90008093E1008091E2008F7E8093E20080915C
:100AA000E20081608093E20080913C01882311F094
:100AB00084E007C08091E30087FF02C083E001C0AB
:100AC00081E080934001CCDC8091E10083FF22C073
:100AD0008091E20083FF1EC08091E100877F8093B8
:100AE000E10082E08093400110923C018091E1009E
:100AF0008E7F8093E1008091E2008E7F8093E20000
:100B00008091E20080618093E20042E260E080E058
:100B100064DE56D1FF91EF91BF91AF919F918F917C
:100B20007F916F915F914F913F912F910F900FBEE9
:100B30000F901F9018951F93CF93DF93CDB7DEB71B
:100B4000AA970FB6F894DEBF0FBECDBFE1E4F1E087
:100B50008091F100819321E0E934F207C9F78BDC41
:100B60008091E80083FF14C120914101309142013E
:100B7000832F90E08A30910508F00AC1FC01E65C01
:100B8000FF4F7CC2203881F0223809F001C18091EA
:100B900045018F708093E9008091EB0085FB8827E9
:100BA00080F91092E90006C080913D0190913E01CC
:100BB000911182609091E800977F9093E800809374
:100BC000F1001092F100C1C0822F8D7F09F0E0C0CA
:100BD000222319F0223061F0DBC080914301813083
:100BE00009F0D6C0333009F080E080933E0128C080
:100BF00080914301811124C0209145012F7009F497
:100C0000C7C02093E9008091EB0080FF19C080915C
:100C1000EB00333011F4806211C080618093EB00EF
:100C200081E090E0022E01C0880F0A94EAF78093D9
:100C3000EA001092EA008091EB0088608093EB005C
:100C40001092E9008091E800877F82C02111A0C046
:100C5000109143011F778091E3008078812B80936E
:100C6000E3008091E800877F8093E80027DE809191
:100C7000E80080FFFCCF8091E30080688093E30070
:100C8000112311F083E001C082E08093400180C015
:100C90002058223008F07CC080914301909144019B
:100CA0008C3D23E0920771F583E08A838AE2898391
:100CB0004FB7F894DE01139620E03EE051E2E32FB7
:100CC000F0E050935700E49120FF03C0E295EF70ED
:100CD0003F5FEF708E2F90E0EA3010F0C79601C0B2
:100CE000C0968D939D932F5F243149F74FBF80911C
:100CF000E800877F8093E8006AE270E0CE01019609
:100D000071DC12C0AE014F5F5F4F60914501CEDBD9
:100D1000009709F43DC02091E800277F2093E80068
:100D2000BC0189819A81F9DC8091E8008B778093FE
:100D3000E8002EC0203861F58091E800877F80931D
:100D4000E80080913C018093F1008091E8008E776B
:100D50008093E800B3DD1CC021111AC090914301BB
:100D60009230B0F48091E800877F8093E800909300
:100D70003C01A4DD80913C01811104C08091E3001D
:100D800087FF02C084E001C081E0809340016ADBFC
:100D90008091E80083FF0AC08091E800877F8093FC
:100DA000E8008091EB0080628093EB00AA960FB67A
:100DB000F894DEBF0FBECDBFDF91CF911F91089594
:100DC0000895CF93809140018823A9F08091E90094
:100DD0008F709091EC0090FF02C090E801C090E00D
:100DE000C92FC82B1092E9008091E80083FDA3DE93
:100DF000CF70C093E900CF9108956F927F928F9248
:100E00009F92AF92BF92CF92DF92EF92FF920F9399
:100E10001F93CF93DF9300D01F92CDB7DEB77C0135
:100E2000ADB6BEB68091E80083FFFEC0F7018081B9
:100E300090E020914501309146012817390709F0CB
:100E4000F3C080914201833009F495C030F48130C1
:100E500071F0823009F4CCC0E7C08A3009F4B0C028
:100E60008B3009F499C0893009F0DEC047C0809109
:100E70004101813A09F0D8C08DB69EB61A82198216
:100E800080914301109144018B83F701408550E02C
:100E90008DB79EB7841B950B0FB6F8949EBF0FBEFF
:100EA0008DBFEDB7FEB731966F0160E070E0CF0106
:100EB000F4D04FEF410F8E010F5F1F4F9601BE011F
:100EC0006D5F7F4FC701E6DAF70186819781009752
:100ED00021F0408550E0B601D7D01092E900809112
:100EE000E800877F8093E80069817A81C6017ADB18
:100EF0008091E8008B778093E80037C080914101B2
:100F0000813209F091C08DB69EB6009147011091D3
:100F1000480170904301609044018DB79EB7801BDB
:100F2000910B0FB6F8949EBF0FBE8DBFEDB7FEB705
:100F300031966F018091E800877F8093E800B801C7
:100F4000CF01AFDB8091E8008E778093E80021E04D
:100F5000711001C020E030E0021B130B2C0D3D1D71
:100F60004FEF460D672DC701A0DA0FB6F8949EBE6D
:100F70000FBE8DBE59C080914101813A09F054C025
:100F80008091E800877F8093E8008091E80080FFEF
:100F9000FCCFF701818540C080914101813209F089
:100FA00043C08091E800877F8093E80087DC9091C0
:100FB000430181E0911101C080E0F701818734C0D5
:100FC00080914101813281F58091E800877F809393
:100FD000E80074DC8091430190914401882736E059
:100FE000969587953A95E1F7F701958784871CC018
:100FF00080914101813AC1F48091E800877F80931C
:10100000E8008091E80080FFFCCFF701848595859A
:1010100096958795969587958093F1008091E80045
:101020008E778093E8004ADC0FB6F894BEBE0FBE00
:10103000ADBE0F900F900F90DF91CF911F910F9148
:10104000FF90EF90DF90CF90BF90AF909F908F90E8
:101050007F906F900895FC01399627E0DF011D9283
:101060002A95E9F721E0FC01218724EF31E035875B
:10107000248723E0248361E00196E4CBEE0FFF1F79
:101080000590F491E02D0994FB01DC0102C0019070
:101090000D9241505040D8F70895DC0101C06D9386
:0C10A00041505040E0F70895F894FFCF55
:1010AC000081200000012601160000000000000055
:00000001FF
